{
  "_format": "hh-sol-artifact-1",
  "contractName": "SuperMarioWorld",
  "sourceName": "contracts/SuperMarioWorld.sol",
  "abi": [
    {
      "inputs": [
        {
          "internalType": "string",
          "name": "_name",
          "type": "string"
        },
        {
          "internalType": "string",
          "name": "_symbol",
          "type": "string"
        }
      ],
      "stateMutability": "nonpayable",
      "type": "constructor"
    },
    {
      "anonymous": false,
      "inputs": [
        {
          "indexed": true,
          "internalType": "address",
          "name": "_owner",
          "type": "address"
        },
        {
          "indexed": true,
          "internalType": "address",
          "name": "_approved",
          "type": "address"
        },
        {
          "indexed": false,
          "internalType": "uint256",
          "name": "_tokenId",
          "type": "uint256"
        }
      ],
      "name": "Approval",
      "type": "event"
    },
    {
      "anonymous": false,
      "inputs": [
        {
          "indexed": true,
          "internalType": "address",
          "name": "_owner",
          "type": "address"
        },
        {
          "indexed": true,
          "internalType": "address",
          "name": "_operator",
          "type": "address"
        },
        {
          "indexed": false,
          "internalType": "bool",
          "name": "_approved",
          "type": "bool"
        }
      ],
      "name": "ApprovalForAll",
      "type": "event"
    },
    {
      "anonymous": false,
      "inputs": [
        {
          "indexed": true,
          "internalType": "address",
          "name": "_from",
          "type": "address"
        },
        {
          "indexed": true,
          "internalType": "address",
          "name": "_to",
          "type": "address"
        },
        {
          "indexed": true,
          "internalType": "uint256",
          "name": "_tokenId",
          "type": "uint256"
        }
      ],
      "name": "Transfer",
      "type": "event"
    },
    {
      "inputs": [
        {
          "internalType": "address",
          "name": "to",
          "type": "address"
        },
        {
          "internalType": "uint256",
          "name": "tokenId",
          "type": "uint256"
        }
      ],
      "name": "approve",
      "outputs": [],
      "stateMutability": "nonpayable",
      "type": "function"
    },
    {
      "inputs": [
        {
          "internalType": "address",
          "name": "owner",
          "type": "address"
        }
      ],
      "name": "balanceOf",
      "outputs": [
        {
          "internalType": "uint256",
          "name": "",
          "type": "uint256"
        }
      ],
      "stateMutability": "view",
      "type": "function"
    },
    {
      "inputs": [
        {
          "internalType": "uint256",
          "name": "tokenId",
          "type": "uint256"
        }
      ],
      "name": "getApproved",
      "outputs": [
        {
          "internalType": "address",
          "name": "",
          "type": "address"
        }
      ],
      "stateMutability": "view",
      "type": "function"
    },
    {
      "inputs": [
        {
          "internalType": "address",
          "name": "owner",
          "type": "address"
        },
        {
          "internalType": "address",
          "name": "operator",
          "type": "address"
        }
      ],
      "name": "isApprovedForAll",
      "outputs": [
        {
          "internalType": "bool",
          "name": "",
          "type": "bool"
        }
      ],
      "stateMutability": "view",
      "type": "function"
    },
    {
      "inputs": [
        {
          "internalType": "string",
          "name": "_tokenURI",
          "type": "string"
        }
      ],
      "name": "mint",
      "outputs": [],
      "stateMutability": "nonpayable",
      "type": "function"
    },
    {
      "inputs": [],
      "name": "name",
      "outputs": [
        {
          "internalType": "string",
          "name": "",
          "type": "string"
        }
      ],
      "stateMutability": "view",
      "type": "function"
    },
    {
      "inputs": [
        {
          "internalType": "uint256",
          "name": "tokenId",
          "type": "uint256"
        }
      ],
      "name": "ownerOf",
      "outputs": [
        {
          "internalType": "address",
          "name": "",
          "type": "address"
        }
      ],
      "stateMutability": "view",
      "type": "function"
    },
    {
      "inputs": [
        {
          "internalType": "address",
          "name": "from",
          "type": "address"
        },
        {
          "internalType": "address",
          "name": "to",
          "type": "address"
        },
        {
          "internalType": "uint256",
          "name": "tokenId",
          "type": "uint256"
        }
      ],
      "name": "safeTransferFrom",
      "outputs": [],
      "stateMutability": "nonpayable",
      "type": "function"
    },
    {
      "inputs": [
        {
          "internalType": "address",
          "name": "from",
          "type": "address"
        },
        {
          "internalType": "address",
          "name": "to",
          "type": "address"
        },
        {
          "internalType": "uint256",
          "name": "tokenId",
          "type": "uint256"
        },
        {
          "internalType": "bytes",
          "name": "_data",
          "type": "bytes"
        }
      ],
      "name": "safeTransferFrom",
      "outputs": [],
      "stateMutability": "nonpayable",
      "type": "function"
    },
    {
      "inputs": [
        {
          "internalType": "address",
          "name": "operator",
          "type": "address"
        },
        {
          "internalType": "bool",
          "name": "approved",
          "type": "bool"
        }
      ],
      "name": "setApprovalForAll",
      "outputs": [],
      "stateMutability": "nonpayable",
      "type": "function"
    },
    {
      "inputs": [
        {
          "internalType": "bytes4",
          "name": "interfaceId",
          "type": "bytes4"
        }
      ],
      "name": "supportsInterface",
      "outputs": [
        {
          "internalType": "bool",
          "name": "",
          "type": "bool"
        }
      ],
      "stateMutability": "pure",
      "type": "function"
    },
    {
      "inputs": [],
      "name": "symbol",
      "outputs": [
        {
          "internalType": "string",
          "name": "",
          "type": "string"
        }
      ],
      "stateMutability": "view",
      "type": "function"
    },
    {
      "inputs": [],
      "name": "tokenCount",
      "outputs": [
        {
          "internalType": "uint256",
          "name": "",
          "type": "uint256"
        }
      ],
      "stateMutability": "view",
      "type": "function"
    },
    {
      "inputs": [
        {
          "internalType": "uint256",
          "name": "tokenId",
          "type": "uint256"
        }
      ],
      "name": "tokenURI",
      "outputs": [
        {
          "internalType": "string",
          "name": "",
          "type": "string"
        }
      ],
      "stateMutability": "view",
      "type": "function"
    },
    {
      "inputs": [
        {
          "internalType": "address",
          "name": "from",
          "type": "address"
        },
        {
          "internalType": "address",
          "name": "to",
          "type": "address"
        },
        {
          "internalType": "uint256",
          "name": "tokenId",
          "type": "uint256"
        }
      ],
      "name": "transferFrom",
      "outputs": [],
      "stateMutability": "nonpayable",
      "type": "function"
    }
  ],
  "bytecode": "0x60806040523480156200001157600080fd5b5060405162001fa438038062001fa4833981810160405281019062000037919062000193565b81600490805190602001906200004f92919062000071565b5080600590805190602001906200006892919062000071565b50505062000376565b8280546200007f906200029b565b90600052602060002090601f016020900481019282620000a35760008555620000ef565b82601f10620000be57805160ff1916838001178555620000ef565b82800160010185558215620000ef579182015b82811115620000ee578251825591602001919060010190620000d1565b5b509050620000fe919062000102565b5090565b5b808211156200011d57600081600090555060010162000103565b5090565b60006200013862000132846200022f565b62000206565b9050828152602081018484840111156200015157600080fd5b6200015e84828562000265565b509392505050565b600082601f8301126200017857600080fd5b81516200018a84826020860162000121565b91505092915050565b60008060408385031215620001a757600080fd5b600083015167ffffffffffffffff811115620001c257600080fd5b620001d08582860162000166565b925050602083015167ffffffffffffffff811115620001ee57600080fd5b620001fc8582860162000166565b9150509250929050565b60006200021262000225565b9050620002208282620002d1565b919050565b6000604051905090565b600067ffffffffffffffff8211156200024d576200024c62000336565b5b620002588262000365565b9050602081019050919050565b60005b838110156200028557808201518184015260208101905062000268565b8381111562000295576000848401525b50505050565b60006002820490506001821680620002b457607f821691505b60208210811415620002cb57620002ca62000307565b5b50919050565b620002dc8262000365565b810181811067ffffffffffffffff82111715620002fe57620002fd62000336565b5b80604052505050565b7f4e487b7100000000000000000000000000000000000000000000000000000000600052602260045260246000fd5b7f4e487b7100000000000000000000000000000000000000000000000000000000600052604160045260246000fd5b6000601f19601f8301169050919050565b611c1e80620003866000396000f3fe608060405234801561001057600080fd5b50600436106100f55760003560e01c806370a0823111610097578063b88d4fde11610066578063b88d4fde14610284578063c87b56dd146102a0578063d85d3d27146102d0578063e985e9c5146102ec576100f5565b806370a08231146101fc57806395d89b411461022c5780639f181b5e1461024a578063a22cb46514610268576100f5565b8063095ea7b3116100d3578063095ea7b31461017857806323b872dd1461019457806342842e0e146101b05780636352211e146101cc576100f5565b806301ffc9a7146100fa57806306fdde031461012a578063081812fc14610148575b600080fd5b610114600480360381019061010f91906113fc565b61031c565b6040516101219190611605565b60405180910390f35b61013261037e565b60405161013f9190611620565b60405180910390f35b610162600480360381019061015d9190611466565b61040c565b60405161016f91906115ea565b60405180910390f35b610192600480360381019061018d91906113c0565b6104eb565b005b6101ae60048036038101906101a991906112ba565b610633565b005b6101ca60048036038101906101c591906112ba565b6109e8565b005b6101e660048036038101906101e19190611466565b610a08565b6040516101f391906115ea565b60405180910390f35b61021660048036038101906102119190611255565b610aba565b6040516102239190611722565b60405180910390f35b610234610b71565b6040516102419190611620565b60405180910390f35b610252610bff565b60405161025f9190611722565b60405180910390f35b610282600480360381019061027d9190611384565b610c05565b005b61029e60048036038101906102999190611309565b610d02565b005b6102ba60048036038101906102b59190611466565b610d5a565b6040516102c79190611620565b60405180910390f35b6102ea60048036038101906102e59190611425565b610ea2565b005b6103066004803603810190610301919061127e565b610ff1565b6040516103139190611605565b60405180910390f35b60006380ac58cd60e01b827bffffffffffffffffffffffffffffffffffffffffffffffffffffffff191614806103775750635b5e139f60e01b827bffffffffffffffffffffffffffffffffffffffffffffffffffffffff1916145b9050919050565b6004805461038b90611920565b80601f01602080910402602001604051908101604052809291908181526020018280546103b790611920565b80156104045780601f106103d957610100808354040283529160200191610404565b820191906000526020600020905b8154815290600101906020018083116103e757829003601f168201915b505050505081565b60008073ffffffffffffffffffffffffffffffffffffffff166001600084815260200190815260200160002060009054906101000a900473ffffffffffffffffffffffffffffffffffffffff1673ffffffffffffffffffffffffffffffffffffffff1614156104b0576040517f08c379a00000000000000000000000000000000000000000000000000000000081526004016104a7906116c2565b60405180910390fd5b6003600083815260200190815260200160002060009054906101000a900473ffffffffffffffffffffffffffffffffffffffff169050919050565b60006104f682610a08565b90508073ffffffffffffffffffffffffffffffffffffffff163373ffffffffffffffffffffffffffffffffffffffff16148061053857506105378133610ff1565b5b610577576040517f08c379a000000000000000000000000000000000000000000000000000000000815260040161056e90611682565b60405180910390fd5b826003600084815260200190815260200160002060006101000a81548173ffffffffffffffffffffffffffffffffffffffff021916908373ffffffffffffffffffffffffffffffffffffffff1602179055508273ffffffffffffffffffffffffffffffffffffffff168173ffffffffffffffffffffffffffffffffffffffff167f8c5be1e5ebec7d5bd14f71427d1e84f3dd0314c0f7b2291e5b200ac8c7c3b925846040516106269190611722565b60405180910390a3505050565b600061063e82610a08565b90508073ffffffffffffffffffffffffffffffffffffffff163373ffffffffffffffffffffffffffffffffffffffff1614806106ad57503373ffffffffffffffffffffffffffffffffffffffff166106958361040c565b73ffffffffffffffffffffffffffffffffffffffff16145b806106be57506106bd8133610ff1565b5b6106fd576040517f08c379a00000000000000000000000000000000000000000000000000000000081526004016106f490611642565b60405180910390fd5b8373ffffffffffffffffffffffffffffffffffffffff168173ffffffffffffffffffffffffffffffffffffffff161461076b576040517f08c379a000000000000000000000000000000000000000000000000000000000815260040161076290611662565b60405180910390fd5b600073ffffffffffffffffffffffffffffffffffffffff168373ffffffffffffffffffffffffffffffffffffffff1614156107db576040517f08c379a00000000000000000000000000000000000000000000000000000000081526004016107d2906116e2565b60405180910390fd5b600073ffffffffffffffffffffffffffffffffffffffff166001600084815260200190815260200160002060009054906101000a900473ffffffffffffffffffffffffffffffffffffffff1673ffffffffffffffffffffffffffffffffffffffff16141561087e576040517f08c379a0000000000000000000000000000000000000000000000000000000008152600401610875906116c2565b60405180910390fd5b6108896000836104eb565b60016000808673ffffffffffffffffffffffffffffffffffffffff1673ffffffffffffffffffffffffffffffffffffffff16815260200190815260200160002060008282546108d89190611836565b9250508190555060016000808573ffffffffffffffffffffffffffffffffffffffff1673ffffffffffffffffffffffffffffffffffffffff168152602001908152602001600020600082825461092e91906117e0565b92505081905550826001600084815260200190815260200160002060006101000a81548173ffffffffffffffffffffffffffffffffffffffff021916908373ffffffffffffffffffffffffffffffffffffffff160217905550818373ffffffffffffffffffffffffffffffffffffffff168573ffffffffffffffffffffffffffffffffffffffff167fddf252ad1be2c89b69c2b068fc378daa952ba7f163c4a11628f55a4df523b3ef60405160405180910390a450505050565b610a0383838360405180602001604052806000815250610d02565b505050565b6000806001600084815260200190815260200160002060009054906101000a900473ffffffffffffffffffffffffffffffffffffffff169050600073ffffffffffffffffffffffffffffffffffffffff168173ffffffffffffffffffffffffffffffffffffffff161415610ab1576040517f08c379a0000000000000000000000000000000000000000000000000000000008152600401610aa8906116c2565b60405180910390fd5b80915050919050565b60008073ffffffffffffffffffffffffffffffffffffffff168273ffffffffffffffffffffffffffffffffffffffff161415610b2b576040517f08c379a0000000000000000000000000000000000000000000000000000000008152600401610b22906116e2565b60405180910390fd5b6000808373ffffffffffffffffffffffffffffffffffffffff1673ffffffffffffffffffffffffffffffffffffffff168152602001908152602001600020549050919050565b60058054610b7e90611920565b80601f0160208091040260200160405190810160405280929190818152602001828054610baa90611920565b8015610bf75780601f10610bcc57610100808354040283529160200191610bf7565b820191906000526020600020905b815481529060010190602001808311610bda57829003601f168201915b505050505081565b60065481565b80600260003373ffffffffffffffffffffffffffffffffffffffff1673ffffffffffffffffffffffffffffffffffffffff16815260200190815260200160002060008473ffffffffffffffffffffffffffffffffffffffff1673ffffffffffffffffffffffffffffffffffffffff16815260200190815260200160002060006101000a81548160ff0219169083151502179055508173ffffffffffffffffffffffffffffffffffffffff163373ffffffffffffffffffffffffffffffffffffffff167f17307eab39ab6107e8899845ad3d59bd9653f200f220920489ca2b5937696c3183604051610cf69190611605565b60405180910390a35050565b610d0d848484610633565b610d15611085565b610d54576040517f08c379a0000000000000000000000000000000000000000000000000000000008152600401610d4b90611702565b60405180910390fd5b50505050565b6060600073ffffffffffffffffffffffffffffffffffffffff166001600084815260200190815260200160002060009054906101000a900473ffffffffffffffffffffffffffffffffffffffff1673ffffffffffffffffffffffffffffffffffffffff161415610dff576040517f08c379a0000000000000000000000000000000000000000000000000000000008152600401610df6906116a2565b60405180910390fd5b600760008381526020019081526020016000208054610e1d90611920565b80601f0160208091040260200160405190810160405280929190818152602001828054610e4990611920565b8015610e965780601f10610e6b57610100808354040283529160200191610e96565b820191906000526020600020905b815481529060010190602001808311610e7957829003601f168201915b50505050509050919050565b600160066000828254610eb591906117e0565b9250508190555060016000803373ffffffffffffffffffffffffffffffffffffffff1673ffffffffffffffffffffffffffffffffffffffff1681526020019081526020016000206000828254610f0b91906117e0565b925050819055503360016000600654815260200190815260200160002060006101000a81548173ffffffffffffffffffffffffffffffffffffffff021916908373ffffffffffffffffffffffffffffffffffffffff160217905550806007600060065481526020019081526020016000209080519060200190610f8f92919061108e565b506006543373ffffffffffffffffffffffffffffffffffffffff16600073ffffffffffffffffffffffffffffffffffffffff167fddf252ad1be2c89b69c2b068fc378daa952ba7f163c4a11628f55a4df523b3ef60405160405180910390a450565b6000600260008473ffffffffffffffffffffffffffffffffffffffff1673ffffffffffffffffffffffffffffffffffffffff16815260200190815260200160002060008373ffffffffffffffffffffffffffffffffffffffff1673ffffffffffffffffffffffffffffffffffffffff16815260200190815260200160002060009054906101000a900460ff16905092915050565b60006001905090565b82805461109a90611920565b90600052602060002090601f0160209004810192826110bc5760008555611103565b82601f106110d557805160ff1916838001178555611103565b82800160010185558215611103579182015b828111156111025782518255916020019190600101906110e7565b5b5090506111109190611114565b5090565b5b8082111561112d576000816000905550600101611115565b5090565b600061114461113f84611762565b61173d565b90508281526020810184848401111561115c57600080fd5b6111678482856118de565b509392505050565b600061118261117d84611793565b61173d565b90508281526020810184848401111561119a57600080fd5b6111a58482856118de565b509392505050565b6000813590506111bc81611b8c565b92915050565b6000813590506111d181611ba3565b92915050565b6000813590506111e681611bba565b92915050565b600082601f8301126111fd57600080fd5b813561120d848260208601611131565b91505092915050565b600082601f83011261122757600080fd5b813561123784826020860161116f565b91505092915050565b60008135905061124f81611bd1565b92915050565b60006020828403121561126757600080fd5b6000611275848285016111ad565b91505092915050565b6000806040838503121561129157600080fd5b600061129f858286016111ad565b92505060206112b0858286016111ad565b9150509250929050565b6000806000606084860312156112cf57600080fd5b60006112dd868287016111ad565b93505060206112ee868287016111ad565b92505060406112ff86828701611240565b9150509250925092565b6000806000806080858703121561131f57600080fd5b600061132d878288016111ad565b945050602061133e878288016111ad565b935050604061134f87828801611240565b925050606085013567ffffffffffffffff81111561136c57600080fd5b611378878288016111ec565b91505092959194509250565b6000806040838503121561139757600080fd5b60006113a5858286016111ad565b92505060206113b6858286016111c2565b9150509250929050565b600080604083850312156113d357600080fd5b60006113e1858286016111ad565b92505060206113f285828601611240565b9150509250929050565b60006020828403121561140e57600080fd5b600061141c848285016111d7565b91505092915050565b60006020828403121561143757600080fd5b600082013567ffffffffffffffff81111561145157600080fd5b61145d84828501611216565b91505092915050565b60006020828403121561147857600080fd5b600061148684828501611240565b91505092915050565b6114988161186a565b82525050565b6114a78161187c565b82525050565b60006114b8826117c4565b6114c281856117cf565b93506114d28185602086016118ed565b6114db81611a10565b840191505092915050565b60006114f36030836117cf565b91506114fe82611a21565b604082019050919050565b6000611516601d836117cf565b915061152182611a70565b602082019050919050565b60006115396033836117cf565b915061154482611a99565b604082019050919050565b600061155c6016836117cf565b915061156782611ae8565b602082019050919050565b600061157f6016836117cf565b915061158a82611b11565b602082019050919050565b60006115a2600f836117cf565b91506115ad82611b3a565b602082019050919050565b60006115c56018836117cf565b91506115d082611b63565b602082019050919050565b6115e4816118d4565b82525050565b60006020820190506115ff600083018461148f565b92915050565b600060208201905061161a600083018461149e565b92915050565b6000602082019050818103600083015261163a81846114ad565b905092915050565b6000602082019050818103600083015261165b816114e6565b9050919050565b6000602082019050818103600083015261167b81611509565b9050919050565b6000602082019050818103600083015261169b8161152c565b9050919050565b600060208201905081810360008301526116bb8161154f565b9050919050565b600060208201905081810360008301526116db81611572565b9050919050565b600060208201905081810360008301526116fb81611595565b9050919050565b6000602082019050818103600083015261171b816115b8565b9050919050565b600060208201905061173760008301846115db565b92915050565b6000611747611758565b90506117538282611952565b919050565b6000604051905090565b600067ffffffffffffffff82111561177d5761177c6119e1565b5b61178682611a10565b9050602081019050919050565b600067ffffffffffffffff8211156117ae576117ad6119e1565b5b6117b782611a10565b9050602081019050919050565b600081519050919050565b600082825260208201905092915050565b60006117eb826118d4565b91506117f6836118d4565b9250827fffffffffffffffffffffffffffffffffffffffffffffffffffffffffffffffff0382111561182b5761182a611983565b5b828201905092915050565b6000611841826118d4565b915061184c836118d4565b92508282101561185f5761185e611983565b5b828203905092915050565b6000611875826118b4565b9050919050565b60008115159050919050565b60007fffffffff0000000000000000000000000000000000000000000000000000000082169050919050565b600073ffffffffffffffffffffffffffffffffffffffff82169050919050565b6000819050919050565b82818337600083830152505050565b60005b8381101561190b5780820151818401526020810190506118f0565b8381111561191a576000848401525b50505050565b6000600282049050600182168061193857607f821691505b6020821081141561194c5761194b6119b2565b5b50919050565b61195b82611a10565b810181811067ffffffffffffffff8211171561197a576119796119e1565b5b80604052505050565b7f4e487b7100000000000000000000000000000000000000000000000000000000600052601160045260246000fd5b7f4e487b7100000000000000000000000000000000000000000000000000000000600052602260045260246000fd5b7f4e487b7100000000000000000000000000000000000000000000000000000000600052604160045260246000fd5b6000601f19601f8301169050919050565b7f6d73672e73656e646572206973206e6f74206f776e6572206f7220617070726f60008201527f76656420666f72207472616e7366657200000000000000000000000000000000602082015250565b7f46726f6d2061646472657373206973206e6f7420746865206f776e6572000000600082015250565b7f6d73672e73656e646572206973206e6f7420746865206f776e6572206f72206160008201527f6e20617070726f766564206f70657261746f7200000000000000000000000000602082015250565b7f546f6b656e496420646f6573206e6f7420657869737400000000000000000000600082015250565b7f546f6b656e494420646f6573206e6f7420657869737400000000000000000000600082015250565b7f41646472657373206973207a65726f0000000000000000000000000000000000600082015250565b7f5265636569766572206e6f7420696d706c656d656e7465640000000000000000600082015250565b611b958161186a565b8114611ba057600080fd5b50565b611bac8161187c565b8114611bb757600080fd5b50565b611bc381611888565b8114611bce57600080fd5b50565b611bda816118d4565b8114611be557600080fd5b5056fea26469706673582212207a4d1dffb072c7689c25c9debf5664d6d6fe984606e1cd8ad75417f92474877f64736f6c63430008020033",
  "linkReferences": {},
  "deployedLinkReferences": {}
}